{
  "_format": "hh-sol-artifact-1",
  "contractName": "Voting",
  "sourceName": "contracts/voting.sol",
  "abi": [
    {
      "inputs": [
        {
          "internalType": "string[]",
          "name": "_candidates",
          "type": "string[]"
        }
      ],
      "stateMutability": "nonpayable",
      "type": "constructor"
    },
    {
      "anonymous": false,
      "inputs": [
        {
          "indexed": false,
          "internalType": "address",
          "name": "voter",
          "type": "address"
        },
        {
          "indexed": false,
          "internalType": "string",
          "name": "candidate",
          "type": "string"
        }
      ],
      "name": "Voted",
      "type": "event"
    },
    {
      "inputs": [
        {
          "internalType": "uint256",
          "name": "",
          "type": "uint256"
        }
      ],
      "name": "candidates",
      "outputs": [
        {
          "internalType": "string",
          "name": "",
          "type": "string"
        }
      ],
      "stateMutability": "view",
      "type": "function"
    },
    {
      "inputs": [],
      "name": "getAllCandidates",
      "outputs": [
        {
          "internalType": "string[]",
          "name": "",
          "type": "string[]"
        }
      ],
      "stateMutability": "view",
      "type": "function"
    },
    {
      "inputs": [
        {
          "internalType": "string",
          "name": "candidate",
          "type": "string"
        }
      ],
      "name": "getVotes",
      "outputs": [
        {
          "internalType": "uint256",
          "name": "",
          "type": "uint256"
        }
      ],
      "stateMutability": "view",
      "type": "function"
    },
    {
      "inputs": [
        {
          "internalType": "address",
          "name": "",
          "type": "address"
        }
      ],
      "name": "hasVoted",
      "outputs": [
        {
          "internalType": "bool",
          "name": "",
          "type": "bool"
        }
      ],
      "stateMutability": "view",
      "type": "function"
    },
    {
      "inputs": [],
      "name": "owner",
      "outputs": [
        {
          "internalType": "address",
          "name": "",
          "type": "address"
        }
      ],
      "stateMutability": "view",
      "type": "function"
    },
    {
      "inputs": [
        {
          "internalType": "string",
          "name": "candidate",
          "type": "string"
        }
      ],
      "name": "vote",
      "outputs": [],
      "stateMutability": "nonpayable",
      "type": "function"
    },
    {
      "inputs": [
        {
          "internalType": "string",
          "name": "",
          "type": "string"
        }
      ],
      "name": "votes",
      "outputs": [
        {
          "internalType": "uint256",
          "name": "",
          "type": "uint256"
        }
      ],
      "stateMutability": "view",
      "type": "function"
    }
  ],
  "bytecode": "0x60806040523480156200001157600080fd5b506040516200127738038062001277833981810160405281019062000037919062000320565b336000806101000a81548173ffffffffffffffffffffffffffffffffffffffff021916908373ffffffffffffffffffffffffffffffffffffffff16021790555080600390805190602001906200008f92919062000097565b5050620004c5565b828054828255906000526020600020908101928215620000eb579160200282015b82811115620000ea578251829080519060200190620000d9929190620000fe565b5091602001919060010190620000b8565b5b509050620000fa91906200018f565b5090565b8280546200010c9062000431565b90600052602060002090601f0160209004810192826200013057600085556200017c565b82601f106200014b57805160ff19168380011785556200017c565b828001600101855582156200017c579182015b828111156200017b5782518255916020019190600101906200015e565b5b5090506200018b9190620001b7565b5090565b5b80821115620001b35760008181620001a99190620001d6565b5060010162000190565b5090565b5b80821115620001d2576000816000905550600101620001b8565b5090565b508054620001e49062000431565b6000825580601f10620001f8575062000219565b601f016020900490600052602060002090810190620002189190620001b7565b5b50565b6000620002336200022d8462000399565b62000365565b9050808382526020820190508260005b858110156200027757815185016200025c8882620002f3565b84526020840193506020830192505060018101905062000243565b5050509392505050565b6000620002986200029284620003c8565b62000365565b905082815260208101848484011115620002b157600080fd5b620002be848285620003fb565b509392505050565b600082601f830112620002d857600080fd5b8151620002ea8482602086016200021c565b91505092915050565b600082601f8301126200030557600080fd5b81516200031784826020860162000281565b91505092915050565b6000602082840312156200033357600080fd5b600082015167ffffffffffffffff8111156200034e57600080fd5b6200035c84828501620002c6565b91505092915050565b6000604051905081810181811067ffffffffffffffff821117156200038f576200038e62000496565b5b8060405250919050565b600067ffffffffffffffff821115620003b757620003b662000496565b5b602082029050602081019050919050565b600067ffffffffffffffff821115620003e657620003e562000496565b5b601f19601f8301169050602081019050919050565b60005b838110156200041b578082015181840152602081019050620003fe565b838111156200042b576000848401525b50505050565b600060028204905060018216806200044a57607f821691505b6020821081141562000461576200046062000467565b5b50919050565b7f4e487b7100000000000000000000000000000000000000000000000000000000600052602260045260246000fd5b7f4e487b7100000000000000000000000000000000000000000000000000000000600052604160045260246000fd5b610da280620004d56000396000f3fe608060405234801561001057600080fd5b506004361061007d5760003560e01c8063805265e51161005b578063805265e5146101005780638da5cb5b14610130578063b99ef1fa1461014e578063fc36e15b1461017e5761007d565b806309eef43e146100825780632e6997fe146100b25780633477ee2e146100d0575b600080fd5b61009c6004803603810190610097919061068b565b61019a565b6040516100a99190610a11565b60405180910390f35b6100ba6101ba565b6040516100c791906109ef565b60405180910390f35b6100ea60048036038101906100e591906106f5565b610293565b6040516100f79190610a2c565b60405180910390f35b61011a600480360381019061011591906106b4565b61033f565b6040516101279190610a8e565b60405180910390f35b610138610367565b60405161014591906109a4565b60405180910390f35b610168600480360381019061016391906106b4565b61038b565b6040516101759190610a8e565b60405180910390f35b610198600480360381019061019391906106b4565b6103b9565b005b60016020528060005260406000206000915054906101000a900460ff1681565b60606003805480602002602001604051908101604052809291908181526020016000905b8282101561028a5783829060005260206000200180546101fd90610c25565b80601f016020809104026020016040519081016040528092919081815260200182805461022990610c25565b80156102765780601f1061024b57610100808354040283529160200191610276565b820191906000526020600020905b81548152906001019060200180831161025957829003601f168201915b5050505050815260200190600101906101de565b50505050905090565b600381815481106102a357600080fd5b9060005260206000200160009150905080546102be90610c25565b80601f01602080910402602001604051908101604052809291908181526020018280546102ea90610c25565b80156103375780601f1061030c57610100808354040283529160200191610337565b820191906000526020600020905b81548152906001019060200180831161031a57829003601f168201915b505050505081565b6000600282604051610351919061098d565b9081526020016040518091039020549050919050565b60008054906101000a900473ffffffffffffffffffffffffffffffffffffffff1681565b6002818051602081018201805184825260208301602085012081835280955050505050506000915090505481565b600160003373ffffffffffffffffffffffffffffffffffffffff1673ffffffffffffffffffffffffffffffffffffffff16815260200190815260200160002060009054906101000a900460ff1615610446576040517f08c379a000000000000000000000000000000000000000000000000000000000815260040161043d90610a4e565b60405180910390fd5b61044f81610555565b61048e576040517f08c379a000000000000000000000000000000000000000000000000000000000815260040161048590610a6e565b60405180910390fd5b60018060003373ffffffffffffffffffffffffffffffffffffffff1673ffffffffffffffffffffffffffffffffffffffff16815260200190815260200160002060006101000a81548160ff0219169083151502179055506002816040516104f5919061098d565b9081526020016040518091039020600081548092919061051490610c57565b91905055507fcb6783276e8a4347387036bbfea000268f0a4b1f8c46ac79980609f2af8d2acd338260405161054a9291906109bf565b60405180910390a150565b600080600090505b6003805490508110156105ee578280519060200120600382815481106105ac577f4e487b7100000000000000000000000000000000000000000000000000000000600052603260045260246000fd5b906000526020600020016040516105c39190610976565b604051809103902014156105db5760019150506105f4565b80806105e690610c57565b91505061055d565b50600090505b919050565b600061060c61060784610ada565b610aa9565b90508281526020810184848401111561062457600080fd5b61062f848285610be3565b509392505050565b60008135905061064681610d3e565b92915050565b600082601f83011261065d57600080fd5b813561066d8482602086016105f9565b91505092915050565b60008135905061068581610d55565b92915050565b60006020828403121561069d57600080fd5b60006106ab84828501610637565b91505092915050565b6000602082840312156106c657600080fd5b600082013567ffffffffffffffff8111156106e057600080fd5b6106ec8482850161064c565b91505092915050565b60006020828403121561070757600080fd5b600061071584828501610676565b91505092915050565b600061072a8383610844565b905092915050565b61073b81610b9b565b82525050565b600061074c82610b2f565b6107568185610b52565b93508360208202850161076885610b0a565b8060005b858110156107a45784840389528151610785858261071e565b945061079083610b45565b925060208a0199505060018101905061076c565b50829750879550505050505092915050565b6107bf81610bad565b82525050565b600081546107d281610c25565b6107dc8186610b63565b945060018216600081146107f757600181146108085761083b565b60ff1983168652818601935061083b565b61081185610b1a565b60005b8381101561083357815481890152600182019150602081019050610814565b838801955050505b50505092915050565b600061084f82610b3a565b6108598185610b6e565b9350610869818560208601610bf2565b61087281610d2d565b840191505092915050565b600061088882610b3a565b6108928185610b7f565b93506108a2818560208601610bf2565b6108ab81610d2d565b840191505092915050565b60006108c182610b3a565b6108cb8185610b90565b93506108db818560208601610bf2565b80840191505092915050565b60006108f4600e83610b7f565b91507f416c726561647920766f746564210000000000000000000000000000000000006000830152602082019050919050565b6000610934601283610b7f565b91507f496e76616c69642063616e6469646174652100000000000000000000000000006000830152602082019050919050565b61097081610bd9565b82525050565b600061098282846107c5565b915081905092915050565b600061099982846108b6565b915081905092915050565b60006020820190506109b96000830184610732565b92915050565b60006040820190506109d46000830185610732565b81810360208301526109e6818461087d565b90509392505050565b60006020820190508181036000830152610a098184610741565b905092915050565b6000602082019050610a2660008301846107b6565b92915050565b60006020820190508181036000830152610a46818461087d565b905092915050565b60006020820190508181036000830152610a67816108e7565b9050919050565b60006020820190508181036000830152610a8781610927565b9050919050565b6000602082019050610aa36000830184610967565b92915050565b6000604051905081810181811067ffffffffffffffff82111715610ad057610acf610cfe565b5b8060405250919050565b600067ffffffffffffffff821115610af557610af4610cfe565b5b601f19601f8301169050602081019050919050565b6000819050602082019050919050565b60008190508160005260206000209050919050565b600081519050919050565b600081519050919050565b6000602082019050919050565b600082825260208201905092915050565b600081905092915050565b600082825260208201905092915050565b600082825260208201905092915050565b600081905092915050565b6000610ba682610bb9565b9050919050565b60008115159050919050565b600073ffffffffffffffffffffffffffffffffffffffff82169050919050565b6000819050919050565b82818337600083830152505050565b60005b83811015610c10578082015181840152602081019050610bf5565b83811115610c1f576000848401525b50505050565b60006002820490506001821680610c3d57607f821691505b60208210811415610c5157610c50610ccf565b5b50919050565b6000610c6282610bd9565b91507fffffffffffffffffffffffffffffffffffffffffffffffffffffffffffffffff821415610c9557610c94610ca0565b5b600182019050919050565b7f4e487b7100000000000000000000000000000000000000000000000000000000600052601160045260246000fd5b7f4e487b7100000000000000000000000000000000000000000000000000000000600052602260045260246000fd5b7f4e487b7100000000000000000000000000000000000000000000000000000000600052604160045260246000fd5b6000601f19601f8301169050919050565b610d4781610b9b565b8114610d5257600080fd5b50565b610d5e81610bd9565b8114610d6957600080fd5b5056fea26469706673582212208243376216b13614984f7e55baa071341ae95fc2ee7f4fd8ff3da1d335a0be4e64736f6c63430008000033",
  "linkReferences": {},
  "deployedLinkReferences": {}
}